S01700004763634170706C69636174696F6E312E737265635B
S11300000C945A000C9464000C9464000C946400E6
S11300100C9464000C9464000C9464000C946400CC
S11300200C9464000C9464000C9464000C946400BC
S11300300C9464000C9464000C9475000C9464009B
S11300400C9466000C9464000C9464000C9464009A
S11300500C9464000C9464000C9464000C9464008C
S11300600C9464000C9464000C9464000C9464007C
S11300700C9464000C9464000C9464000C9464006C
S11300800C9464000C9464000C9464000C9464005C
S11300900C9464000C9464000C9464000C9464004C
S11300A00C9464000C9464000C9464000C9464003C
S11300B00C94640011241FBECFEFD8E0DEBFCDBF87
S11300C00E948B000C948E000C9400001F920F92DF
S11300D00FB60F9211248F938BB182708BB98F91CD
S11300E00F900FBE0F901F9018951F920F920FB68E
S11300F00F921124599A0F900FBE0F901F901895CC
S1130100519A599881E185BD83E080936E0088EC13
S113011087BD789408950E948000FFCFF894FFCFA4
S9030000FC
